:100000000C94B4020C94D1020C94D1020C94D10241
:100010000C94D1020C94D1020C94D1020C94D10214
:100020000C94D1020C94D1020C94832B0C94552C7B
:100030000C94EF210C94D1020C94D1020C94D102B7
:100040000C94D1020C94D1020C94D1020C94D102E4
:100050000C94D1020C9457220C94D1020C94D1022E
:100060000C94D1020C94D1020C94D1020C94D102C4
:100070000C94D1020C94D1020C94D1020C94D102B4
:100080000C94D1020C94D1020C94D1020C94D102A4
:100090000C94D1020C94D1020C94D1020C94D10294
:1000A0000C94D1020C94D1020C94D10229032C039C
:1000B0002F033203350338033B03F006F206FD0637
:1000C000F406F606F806FA06FC06FF060107030723
:1000D0000E070507070709070B070D07100763172A
:1000E000631795179517CC17EC175519B3192E18D8
:1000F000B319DB18DB184C19B319B319AD19E8188B
:10010000E818E818E818E818E818E818E818E818EF
:10011000E818E818E818E818E818E818E818F918CE
:1001200006190D1914191E193E1A3E1A501A501AA2
:10013000471A501A501A501A3E1A3E1A4C1A501AA0
:10014000501A4C1ACA25C025D825312638263826FB
:10015000312638263826F925382603260D26382656
:1001600038263826382631263826382631263826AD
:10017000E625382638261D261D261D261D261D2669
:100180001D261D261D261D2633263826CA25BD25DB
:10019000382638263826382638263826382638266F
:1001A00038263826332638263826312638261B2688
:1001B0001B261B261B261B261B261B261B261B2637
:1001C0003326C22CE92CDB2DE92CDB2D352D582DC7
:1001D000DB2DAE2DBD2D07634236B79BD8A71A394C
:1001E000685618AEBAAB558C1D3CB7CC5763BD6D85
:1001F000EDFD753EF6177231BF000000803F05A887
:100200004CCDB2D44EB93836A9020C50B99186887B
:10021000083CA6AAAA2ABE000000803F31002B009D
:10022000E000E100E10000003500140004001D00C2
:10023000000034011E001A0016001B0000002A00F6
:100240001F00080007000600E2002C002000150037
:1002500009001900E3000000210017000A00050052
:1002600000004A00220000000000000000004D00D5
:1002700023000000000000000000000024001C001B
:100280000B00110000000000250018000D001000F8
:1002900031084B0026000C000E00360000002C0038
:1002A000270012000F003700000028002D00130067
:1002B0003300380000004E002E002F0034003000C4
:1002C0000000000000047F3F1F6432146432147881
:1002D0003C1E1E140A056801F000B40078005A00A4
:1002E0000000000000010101010101010101020201
:1002F00002020202020202030303030303030304D4
:10030000040404040405050505050606060606079B
:10031000070707080808080909090A0A0A0A0B0B4F
:100320000B0C0C0C0D0D0D0E0E0F0F0F10101111EC
:10033000111212131314141515161617171818196D
:10034000191A1A1B1C1C1D1D1E1F1F2020212222D2
:100350002324252526272728292A2B2B2C2D2E2F11
:100360002F30313233343536363738393A3B3C3D2D
:100370003E3F4041424344464748494A4B4C4D4F1B
:1003800050515253555657585A5B5C5E5F606263DA
:10039000646667696A6C6D6E707173747678797B68
:1003A0007C7E8081838486888A8B8D8F91929496BF
:1003B000989A9B9D9FA1A3A5A7A9ABADAFB1B3B5DB
:1003C000B7B9BBBDBFC1C4C6C8CACCCFD1D3D6D8BC
:1003D000DADCDFE1E4E6E8EBEDF0F2F5F7FAFCFF5A
:1003E00004033000000016034500720067006F0030
:1003F00044006F007800200045005A0000001603FA
:100400004500720067006F0044006F007800200014
:1004100045005A0000000403090409023B000201E0
:1004200000A0FA09040000010301010009211101E3
:1004300000012240000705810308000A09040100A9
:10044000010300000009211101000122C00007057D
:10045000820320000A1201100100000008EDFE07CF
:100460001301000102030105010902A1018502092E
:1004700001A100050919012905150025019505753A
:1004800001810295017503810105010930093115CA
:1004900081257F95027508810609381581257F958C
:1004A0000175088106050C0A38021581257F950122
:1004B00075088106C0C005010980A10185031601E8
:1004C000002603001A81002A83007510950181001F
:1004D000C0050C0901A1018504160100269C021A21
:1004E00001002A9C02751095018100C005010906D2
:1004F000A1018505050719E029E7150025019508E3
:1005000075018102050819012905950575019102FA
:100510009501750391010507190029EF15002501C3
:1005200095F075018102C005010906A101050719B1
:10053000E029E715002501950875018102950175EF
:100540000881010508190129059505750191029594
:1005500001750391010507190029FF150026FF0009
:10056000950675088100C00011241FBECFEFDAE0A8
:10057000DEBFCDBF11E0A0E0B1E0EAEBF3E602C0E0
:1005800005900D92A43DB107D9F723E0A4EDB1E0A9
:1005900001C01D92AB3BB207E1F70E94A5280C9465
:1005A000DB310C94000080B38C7080BB81B3836F0F
:1005B00081BB089584B1807F84B985B1807F85B97E
:1005C0008AB1837F8AB98BB1837F8BB93E98469875
:1005D0000895CF93E82F873090F580910001909196
:1005E0000101892B09F049C0CE2F64E670E080E458
:1005F0000E946A049093010180930001892BD1F439
:1006000064E670E082E10E94C1049093010180934E
:100610000001892B79F481E090E001C0880FCA9530
:10062000EAF764E670E080950E94C10490930101AE
:100630008093000184E690E0CF910C94160590E041
:10064000FC013797E730F105C0F4EA5AFF4F0C94EC
:100650008031209A289811C0219A29980EC0229A98
:100660002A980BC0239A2B9808C0529A5A9805C012
:10067000539A5B9802C03E9A4698CF910895089588
:1006800008950C944003CF93DF930E94A80590E057
:1006900090930101809300010E94DA020E94D3022C
:1006A000A9E2B2E025ED31E0E7E3F2E04EE04E0FE3
:1006B00011921D9280E090E0E901C80FD91F1882C5
:1006C000019686309105C1F72A5F3F4F4E13F0CF58
:1006D000DF91CF910C9429060E94A80590E0909399
:1006E0000101809300010E94DA020E94D302E7E335
:1006F000F2E08EE08E0F11928E13FDCF0895CF930E
:10070000DF93E62FF0E0E75DFD4F408148278083CF
:1007100086E0689FF0011124EB52FE4F20E030E0AC
:1007200080E061E070E050E0AAE0B22F9081992370
:1007300019F09150908307C0EB01022E01C0CC0F3D
:100740000A94EAF78C2BEA0102C0D595C795BA95B1
:10075000E2F7C0FDA0832F5F3F4F31962630310571
:1007600021F7DF91CF910895CF93DF93D82F873072
:1007700008F040C08091000190910101892B09F09F
:1007800042C064E670E080E40E946A049093010134
:1007900080930001892B11F0C0E027C064E670E06F
:1007A00083E10E94C1049093010180930001892B91
:1007B00099F764E670E081E40E946A049093010175
:1007C00080930001892B41F784E690E00E94F104B8
:1007D00097FF05C09093010180930001DDCFC82FE2
:1007E000C095109201011092000184E690E00E94F1
:1007F00016050AC09FB1CFB1C07FC695C69593704C
:10080000C92BC09501C0C0E06D2F8C2F0E947F03C3
:10081000282F2095ED2FF0E0E95CFD4F9081922389
:100820008C23892BDF91CF910895EF92FF920F9344
:100830001F93CF93DF938091000190910101892B49
:1008400091F08091D4018F5F8093D40181110BC00E
:100850000E94A80590E09093010180930001892BEC
:1008600011F40E943A0587E3E82E82E0F82E0EE3A9
:1008700012E0C0E08C2F0E94E902D7E0DC0F8D2F40
:100880000E94E9028C2F0E94B403F70181937F013B
:100890008D2F0E94B403F80181938F010E94DA0228
:1008A000CF5FC73039F70E94330681E0DF91CF91E7
:1008B0001F910F91FF90EF900895E82FF0E0E95C11
:1008C000FD4F8081089508951092B9008CE08093C7
:1008D000B8000895EF92FF920F931F93CF93DF9389
:1008E000182FEB011092BC0084EA8093BC000E9498
:1008F00021227C019091BC0097FD0EC0CF3F8FEF6D
:10090000D807C1F30E9421228E199F098C179D07D9
:1009100088F38EEF9FEF2EC09091B900987F9830AA
:1009200041F09091B900987F903119F08FEF9FEFCF
:1009300021C01093BB0084E88093BC000E94212258
:100940008C019091BC0097FD0CC0CF3F8FEFD80772
:10095000C1F30E942122801B910B8C179D0788F305
:10096000D8CF8091B900887F883111F08034F1F6BA
:1009700080E090E0DF91CF911F910F91FF90EF9079
:1009800008950F931F93CF93DF93EB018093BB00E8
:1009900084E88093BC000E9421228C019091BC00CD
:1009A00097FD0EC0CF3F8FEFD807C1F30E942122E1
:1009B000801B910B8C179D0788F38EEF9FEF0CC067
:1009C0002091B900287F81E090E0283211F480E086
:1009D00090E0919581959109DF91CF911F910F91B1
:1009E00008950F931F93CF93DF93EC0184E88093D6
:1009F000BC000E9421228C019091BC0097FD0EC08A
:100A0000CF3F8FEFD807C1F30E942122801B910BAB
:100A10008C179D0788F38EEF9FEF03C08091BB007A
:100A200090E0DF91CF911F910F9108950F931F9345
:100A3000CF93DF93EC0184E98093BC000E942122D4
:100A40008C019091BC0094FF0EC0CF3F8FEFD80770
:100A5000C1F30E942122801B910B8C179D0788F304
:100A60008EEF9FEF02C080E090E0DF91CF911F9169
:100A70000F91089556985E9825982D9826982E984F
:100A800027982F988FEF90E09093890080938800AB
:100A900090938B0080938A0090938D0080938C00BC
:100AA000259A2D9A2FEF80E792E0215080409040C8
:100AB000E1F700C00000269A2E9A2FEF80E792E01F
:100AC000215080409040E1F700C00000279A2F9A03
:100AD0002FEF80E792E0215080409040E1F700C086
:100AE000000025982D982FEF80E792E0215080405C
:100AF0009040E1F700C0000026982E982FEF80E785
:100B000092E0215080409040E1F700C0000027981B
:100B10002F9856985E9825982D9826982E98279865
:100B20002F98089589EA8093800089E0809381005E
:100B300024982C983F988AB18F7C8AB96E98479AEE
:100B40008BB180638BB9769A0E943A050C943F036F
:100B500080E290E090930101809300018091450232
:100B600081110EC00E94640481E0809345022FEF42
:100B700083ED90E3215080409040E1F700C00000F9
:100B800064E670E080E40E946A049093010180931F
:100B90000001892B09F050C064E670E080E00E94FB
:100BA000C1049093010180930001892B09F044C096
:100BB00064E670E080E00E94C1049093010180939C
:100BC0000001892BC9F564E670E08FE30E94C1043F
:100BD0009093010180930001892B71F584E690E0E8
:100BE0000E94160564E670E080E40E946A04909317
:100BF000010180930001892BF9F464E670E08CE038
:100C00000E94C1049093010180930001892BA1F4FB
:100C100064E670E080E00E94C1049093010180933B
:100C20000001892B49F464E670E08FE30E94C1045F
:100C3000909301018093000184E690E00E941605E4
:100C400080910001089581E0089581E008950C9459
:100C500025060E949820811102C00E940D210E9449
:100C60008C0B0C9492050C944103282F2F7041F0AB
:100C7000822F90E02A3010F44D960895069708953B
:100C800087E290E0089508950C9443060C9444067E
:100C900008950E942E1A0E9448062FEF84E39CE0DC
:100CA000215080409040E1F700C000000C947D226C
:100CB000FF920F931F93CF93DF938C01FC01C081B0
:100CC000D18180919002811113C08281882349F0E3
:100CD000CE010E94651FF82E682FCE010E94081FCA
:100CE00004C0CE010E94381FF82EBE018F2D04C013
:100CF000CE010E94651FBE010E94F608EC01B801FA
:100D00000E942706882309F466C2B801CE010E941A
:100D1000070C882309F45FC2CC3CFCE5DF0741F4F3
:100D2000F8018281882309F456C20E94340D53C20F
:100D3000CD3C8CE5D80708F01EC1C43C9CE5D90722
:100D400061F4F8018281882309F445C20E94E51FFD
:100D50008272E1F40E945E0F3EC2C53CECE5DE0704
:100D600008F0C7C0C531FCE5DF0798F0C23CFCE5E0
:100D7000DF0709F48CC008F492C0F801828188234F
:100D800009F429C20E94E51F827221F70E94500FC8
:100D900022C2C2308CE5D80708F452C0F801828123
:100DA000882309F459C00E949820811102C00E9432
:100DB0000D210E94AB2090E09093AD038093AC0393
:100DC000FE01E350FC45E231F10530F4E35AFF4FF8
:100DD0008091AC030C9480318091AC03816027C07A
:100DE000826025C0846023C0806121C080621FC0F2
:100DF00080641DC080681BC08460886018C08E7FBE
:100E000016C08D7F14C08B7F12C08F7E10C08F7D67
:100E10000EC08F7B0CC08F770AC08B7F877F07C087
:100E200087FB222720F991E0922790FB87F9809396
:100E3000AC038091AC030E94AF200E942E1ACBC15C
:100E4000C1159CE5D90781F0C130DC45A9F081E0EE
:100E500080934B0280934C02C801DF91CF911F9188
:100E60000F91FF900C942306F8018281882309F4E6
:100E7000B2C10E944906AFC1F8018281882309F4FA
:100E8000AAC180912F03816080932F03A4C1F80130
:100E90008281882309F49FC10E94C20F9CC1C63180
:100EA000DC45A9F60E94E51F282FF80182814091B8
:100EB0000F0150911001882379F02A7A91E009F40A
:100EC00090E090934602911102C069E201C065E38F
:100ED000CA010E9474210AC080914602811102C099
:100EE00069E201C065E3CA010E947F210E943420AB
:100EF00072C1F8018281C83CFCE5DF0731F4882328
:100F000009F469C10E94B70E66C1C93C9CE5D907C6
:100F1000C8F4C63CECE5DE0731F4882309F45BC174
:100F20000E94890E58C1C73CDC4530F4882309F47F
:100F300052C10E94650E4FC1882309F44CC10E9422
:100F4000A00E49C1CA3C9CE5D90731F4882309F4B5
:100F500042C10E94F70E3FC1CB3CDC4530F48823F0
:100F600009F439C10E94D70E36C1882309F433C170
:100F70000E941F0D30C1C43DFCE5DF0791F4F8016C
:100F80008281882309F427C10E94160D893128F037
:100F90000E94160D823208F4F9CE89E10E94610F99
:100FA0001AC1C53D8CE5D80708F068C0F8018281F8
:100FB000C03DFCE5DF0771F4882309F40CC10E94F1
:100FC000160D893028F00E94160D8E3008F4DECE02
:100FD00089E0E4CFC13D9CE5D90740F5CE3CECE586
:100FE000DE0771F4882309F4F6C00E94160D8230E2
:100FF00028F00E94160D853008F4C8CE82E0CECFCE
:10100000CF3CDC4528F4882309F4E5C081E0C6CF55
:10101000882309F4E0C00E94160D863028F00E9453
:10102000160D883008F4B2CE86E0B8CFC23D9CE5FC
:10103000D90771F4882309F4CEC00E94160D8531BA
:1010400028F00E94160D873108F4A0CE85E1A6CFC6
:10105000C33DDC4570F4882309F4BDC00E94160D21
:101060008F3028F00E94160D843108F48FCE8FE067
:1010700095CF882309F4AFC088E190CFC83DFCE547
:10108000DF0759F5F8018281882361F010924C0244
:101090000E94212290934A028093490280E20E949A
:1010A000211799C080914C02882321F080E20E9490
:1010B000281791C08091490290914A020E942D22E6
:1010C000883C910598F780E20E94281788E20E94E8
:1010D000781588E20E94B1167EC0C93D8CE5D8071C
:1010E00008F058C0F8018281C63DFCE5DF0751F5E4
:1010F000882351F010924B020E94212290934802C3
:101100008093470282E0CBCF0E94E51F85FF05C098
:1011100081E080934B0280934C0280914B028111BD
:101120000FC080914702909148020E942D22883C76
:10113000910530F486E20E94781586E20E94B1168D
:1011400082E0B5CFC73DDC4528F4882309F443C0CD
:1011500083E224CF81119ACF0E94E51F81FF05C051
:1011600081E080934B0280934C0280914C0281116C
:101170009DCF8091490290914A020E942D22883C85
:10118000910508F093CF87E20E94781587E20E94CC
:10119000B1168CCFCC3DECE5DE0741F4F80182813D
:1011A0008823C9F082E00E94462915C0CD3DFCE5A8
:1011B000DF0739F4F8018281882369F00E940D214C
:1011C0000AC0CB3DDC4509F042CEF801828188237C
:1011D00011F080E0E8CF80E0DF91CF911F910F9177
:1011E000FF90089580E090E00895089596E0799F3B
:1011F000F001112494E5899FE00DF11D1124E60F03
:10120000F11DEE0FFF1FE45EFD4F8591949108954F
:10121000880F991FFC01EC53FD4F8591949108951F
:10122000CF93DF930E94F6080E94D50AEC01811546
:1012300020E59207F0F5811530E4930708F029C105
:10124000883E910500F5803E910508F0AAC1883AD4
:10125000910570F4853A910508F0A4C0813091059C
:1012600009F49FC108F450C1049708F09AC14CC119
:101270008F3B910508F4A1C0803C910508F444C15E
:10128000805C9109F9C0811540E2940758F4C115BA
:1012900081E0D80708F085C1C03FD10508F434C10A
:1012A000D0657FC1811520E3920708F0E9C09F70E7
:1012B000E3C0811535E5930708F044C0811544E586
:1012C000940708F0FDC0C11582E5D80708F5C115DF
:1012D00021E5D20708F0E0C08C2F837021E030E0D8
:1012E00002C0220F331F8A95E2F73C68CE0174E0FA
:1012F000969587957A95E1F78370382BCF70C695D0
:10130000C69540E2C49FE0011124C22BD32B49C1F2
:101310002C2F26952695CE0183709927C115D3458C
:1013200008F0BFC040E2249F90011124C1E0D0E04A
:1013300002C0CC0FDD1F8A95E2F72C2B3D2BE90173
:10134000DC682FC181154AE59407A0F4C11589E531
:10135000D80708F0C4C0C11526E5D20708F4B5C007
:10136000C11538E5D30708F4CFC0DC2FCC27C06FF8
:10137000D06A17C181159B4508F4C6C0C1158CE51C
:10138000D80708F4BEC0CE0190568115904208F0EF
:10139000BBC08D2F8F710E94520BDD27D0628F71E1
:1013A000D82BFFC0853A910509F4B1C0863A910562
:1013B00009F0B0C0C2E8D0E4F4C0883A910509F45D
:1013C000ACC0893A910509F4ABC08A3A910509F499
:1013D000AAC08B3A910509F4A9C08C3A910509F489
:1013E000A8C08B3B910509F4A7C08C3B910509F47B
:1013F000A6C08D3A910509F4A5C0803B910509F47A
:10140000A4C08E3A910509F4A3C08F3A910509F45E
:10141000A2C0813B910509F4A1C0823B910509F46A
:10142000A0C0833B910509F49FC0843B910509F45A
:101430009EC0853B910509F49DC0863B910509F44A
:101440009CC0873B910509F49BC0883B910509F43A
:101450009AC0893B910509F499C08D3B910509F427
:1014600098C08E3B910509F497C08A3B910509F419
:1014700096C0C0E0D4E495C00E940809EC0191C078
:101480009927D3FF03C0EC01D86C8BC0EC01D06C62
:1014900088C0DF70D06A85C0DC2FCC27C16FD06ACE
:1014A00080C040E2249F90011124C1E0D0E002C03E
:1014B000CC0FDD1F8A95E2F7C22BD32BDA6871C0FF
:1014C000D82FCC27C46FD06A6CC08C2F0E94520BCF
:1014D0008F71C82FD0E0DC2FCC27D06262C08C2F58
:1014E0008F700E94520B94E0D695C7959A95E1F7BC
:1014F000CF70D0E0DC2FCC27D06A8F70806EC82BE5
:1015000050C0DD27D0664DC0C0E0D0E04AC0C1E881
:10151000D0E447C0C3E8D0E444C0C2EED4E441C044
:10152000C9EED4E43EC0CAEED4E43BC0C5EBD4E47B
:1015300038C0C6EBD4E435C0C3EBD4E432C0C4EB4E
:10154000D4E42FC0C7EBD4E42CC0CCECD4E429C045
:10155000CDECD4E426C0C3E8D5E423C0CAE8D5E482
:1015600020C0C2E9D5E41DC0C4E9D5E41AC0C1E277
:10157000D6E417C0C3E2D6E414C0C4E2D6E411C076
:10158000C5E2D6E40EC0C6E2D6E40BC0C7E2D6E49C
:1015900008C0CFE6D4E405C0C0E7D4E402C0CAE284
:1015A000D6E4CE01DF91CF9108958238910549F1BB
:1015B000B0F48133910509F458C048F4893291059B
:1015C00009F44EC08A32910509F454C00895853358
:1015D000910509F440C08933910599F00895833E3F
:1015E000910529F138F4803E910591F0823E9105F4
:1015F000A1F00895863E9105F9F0873E910531F1FD
:1016000008952091AC0320FD3AC021FD38C0089513
:101610008091AC0380FD35C032C08091AC0382FF65
:1016200032C08091AC0384FD30C083EE39C080911C
:10163000AC0382FD28C0F5CF8091AC0383FF27C0A7
:101640008091AC0384FD21C087EE2AC08091AC0359
:1016500083FD1DC0F5CF8091AC0385FD1AC01BC072
:101660008091AC0385FD17C014C08091AC0386FD4A
:1016700014C015C08091AC0386FD11C00EC080EE71
:101680000FC089E30DC082EE0BC080E009C086EE7A
:1016900007C089E205C085E303C08AE201C081E397
:1016A00090E008959091AC0392FF0DC0282F28710F
:1016B000283019F4877F846006C0282F24712430D5
:1016C00011F48B7F886093FF0DC0282F287128317B
:1016D00019F4877E846106C0282F2471243111F407
:1016E0008B7E886194FD877E0895CF93DF93813050
:1016F00020E8920768F0FB012281222349F0EC01E7
:101700000E94A20BCE019F770E94EA0B0E94D70B8A
:1017100081E0DF91CF9108958CE090E00E949331B9
:1017200090E0A0E0B0E08093610390936203A09307
:101730006303B09364030895609161038CE090E0CB
:101740000C94A7310E94E51F80934D020E94F81F60
:1017500080916103813071F048F08230D9F084309B
:10176000F9F486EE0E94191788E118C082EE0E94F3
:10177000781516C080EE0E94781581EE0E947815CB
:1017800088E10E94191781EE0E94B11680EE0E9436
:10179000B11606C082EE0E94781587E50E941917DF
:1017A0008FE39CE90197F1F700C000000895809154
:1017B0006103813021F038F0823029F007C08CE2DB
:1017C0000E94191703C082EE0E94B11680914D024B
:1017D0000C94F51F0F931F93CF93DF938C01CCE0F4
:1017E000D0E0C8010C2E02C0969587950A94E2F7C6
:1017F0008F700E9435060E9419172497CC3F8FEFF7
:10180000D80779F7DF91CF911F910F9108950F932A
:101810001F93CF93DF93EC018B01FB01828188231F
:1018200019F1C23EFCE5DF07C1F050F4C03EECE523
:10183000DE0781F0C13EFCE5DF07B1F481E010C0B6
:10184000C33E8CE5D80759F0C43EECE5DE0761F4F1
:1018500084E006C01092610305C082E001C083E00D
:10186000809361030E949C0BB801CE01DF91CF9160
:101870001F910F910C94750BEF92FF920F931F9392
:10188000CF93DF93E901662309F44BC0242F30E0A6
:10189000EFEFF0E0E61BF109B901E69F9001E79F49
:1018A000300DF69F300D1124232F8B01031B1109DE
:1018B0005CE3E52EF12CB7010E945831FB01BC011D
:1018C000069FC001079F900D169F900D1124B70130
:1018D0000E945831E230F105B1F040F4309779F0D0
:1018E000319711F5832F242F461B21C0E430F105D9
:1018F000A1F068F03597C1F4842F861B18C0832FA0
:10190000262F230F14C0862F830FE42F03C0E42F4C
:10191000E61B842F432F2E2F0AC0842F462F430F00
:1019200006C0842F242F03C080E020E040E0E42F95
:10193000F0E0E052FD4F4491E22FF0E0E052FD4F25
:101940009491E82FF0E0E052FD4FE49149839883B1
:10195000EA83DF91CF911F910F91FF90EF9008954F
:1019600080916503282F26952F7330E021153105CE
:1019700019F48178826005C02532310524F0817820
:1019800088648093650330916503432F441F442787
:10199000441F20916603522F550F852F842B27FB60
:1019A000992790F9893641E094077CF068E671E068
:1019B0000E946C3180FB37F930936503869520785F
:1019C000822B90FB87F980936603089588E090E06E
:1019D0000C949B31CF93DF9300D000D0CDB7DEB70E
:1019E000AB01BC0149835A836B837C830E94B00C9A
:1019F00049815A816B817C8188E090E00F900F9043
:101A00000F900F90DF91CF910C94B931E5E6F3E0A0
:101A100083E08083109266038FEF82838383148236
:101A200060817181828193810C94EA0C80916503BD
:101A300080FF03C086958F73089580E0089580919C
:101A4000690390E001968430910514F083E090E002
:101A500080936903609165037091660380916703C9
:101A6000909168030C94EA0C8091690390E00197CF
:101A700097FF02C080E090E08430910514F083E08D
:101A800090E0809369036091650370916603809193
:101A90006703909168030C94EA0C8091650380FFC2
:101AA00006C06FE070E08AE693E00C947E1380E05D
:101AB00090E0FC01E659FC4F1182108212820496DC
:101AC0008C339105B1F7EDCF9091650390FF0FC076
:101AD00020E030E0F901E659FC4F818360834283C6
:101AE0002C5F3F4F2C333105A9F70C944D0D089511
:101AF000CF93DF9300D000D0CDB7DEB72091650340
:101B000020FF0AC09E012F5F3F4F0E943C0C4B817B
:101B100069818A810E94640D0F900F900F900F9041
:101B2000DF91CF9108955F926F927F928F929F92F3
:101B3000AF92BF92CF92DF92EF92FF920F931F93DB
:101B4000CF93DF9300D000D0CDB7DEB78C01E62E67
:101B5000F42E522E8091650380FF89C0982F9E77C6
:101B6000923061F49E012F5F3F4FC8010E943C0CF0
:101B70004B8169818A810E94640D59C0E82FE695E6
:101B8000EF739EE39E0F9F73943018F4F0906803F8
:101B90004EC09AE39E0F9F73993068F4881F882780
:101BA000881F90916603292F220F022F082B97FB85
:101BB000112710F93CC087E28E0F8F738A30B8F579
:101BC000F0E07997E0FD02C021E001C02FEFEE7F49
:101BD000EA52FD4F859194916FE070E00E94583178
:101BE00026034001279F900C1124580188E9A81A68
:101BF0008EEFB80A8AE6C82E83E0D82E98E6692EC2
:101C000077247394C501B3010E94583196014F2D7A
:101C10006E2D0E943C0CA80CB91C84E0C80ED11C8F
:101C200086EAC81683E0D80669F70E944D0D8091B8
:101C3000650300FB87F980936503902F969580914B
:101C400066038078892B10FB87F980936603E09206
:101C50006703F0926803552051F06091650370911D
:101C6000660380916703909168030E94EA0C0F90CD
:101C70000F900F900F90DF91CF911F910F91FF90D8
:101C8000EF90DF90CF90BF90AF909F908F907F901C
:101C90006F905F900895282FE5E6F3E09081991FFB
:101CA0009927991F30916603832F880F482F492B5E
:101CB00037FB552750F9CA010C9668E671E00E947F
:101CC0006C31438162810C94930D81E00C944B0E36
:101CD000282F90916503991F9927991F30916603CA
:101CE000832F880F482F492B37FB552750F9CA01FE
:101CF0004C3051051CF4845A9E4F01C00C9768E685
:101D000071E00E946C3140916803609167030C940C
:101D1000930D81E00C94680EE5E6F3E03081331F0B
:101D20003327331F90916603592F550F97FB99273F
:101D300090F9282F43816FEF852F832B0C94930DFF
:101D400081E00C948C0EE5E6F3E03081331F3327FD
:101D5000331F90916603592F550F97FB992790F9E0
:101D6000282F438160E0852F832B0C94930D81E015
:101D70000C94A30E40916803242F30E0243F3105DA
:101D800014F4445F01C04FEF30916503331F3327D4
:101D9000331F90916603592F550F97FB992790F9A0
:101DA000282F60916703852F832B0C94930D81E07E
:101DB0000C94BA0E40916803242F30E02C3031058A
:101DC00014F04C5001C040E030916503331F3327BD
:101DD000331F90916603592F550F97FB992790F960
:101DE000282F60916703852F832B0C94930D81E03E
:101DF0000C94DA0E20E00C94930DCF939091650330
:101E000090FF40C09178811102C0926007C0853276
:101E100010F0986403C08F73880F982B909365031C
:101E2000662351F0609165037091660380916703AA
:101E3000909168030E94EA0CC09165036C2F66952F
:101E40006F7370E04BE050E084E091E00E948631D7
:101E5000892B19F010926B0203C081E080936B0212
:101E6000CC1FCC27CC1F90916603892F880F97FB3E
:101E7000992790F940916803609167038C2BCF916B
:101E80000C94FA0ECF910895682F90916503969562
:101E90009F7381E0890F853208F081E00C94FD0E7C
:101EA00081E00C94440F682F9091650396959F7381
:101EB0008FEF890F09F484E20C94FD0E81E00C94FD
:101EC000530F61E00C94FD0EE5E6F3E08081816044
:101ED000808386958F730C94610F60E00C94FD0EE7
:101EE00080916C02811135C080912F0381608093B5
:101EF0002F030E949820811104C00E940D210E948E
:101F0000060D0E94E60C6093650370936603809350
:101F10006703909368036E7761F40E94060D0E9438
:101F2000E60C609365037093660380936703909358
:101F300068030E94B00C81E080936B02809165037E
:101F400080FF04C086958F730E946D0F81E080939F
:101F50006C020895E5E6F3E080818E7F80836081E6
:101F60007181828193810E94EA0C10926B022FEFA3
:101F700080E792E0215080409040E1F700C00000EF
:101F80000C944D0D8091650380FD0C94AA0F0C9468
:101F9000640FCF93C82F8091690290916A020E94CA
:101FA0002D22EC2FF0E0EE52FD4FE491F0E08E1781
:101FB0009F0708F443C00E94212290936A028093F5
:101FC00069026091680270E080E090E00E94592F01
:101FD00020E030E04FE753E40E947C2E2BED3FE001
:101FE00049E450E40E9482300E94EF300E94F62EB5
:101FF0002BE43AE34EE25FE30E940F2E20EF3BEF2B
:1020000048ED52E40E9482300E94282F462F809192
:102010006503881F8827881F90916603292F220F48
:1020200097FB992790F960916703822B0E94780DA6
:102030008091680290E0019680936802CF910895A4
:10204000CF93C82F80916602909167020E942D2243
:10205000EC2FF0E0E153FD4FE491F0E08E179F0785
:10206000E8F00E94212290936702809366024091DB
:1020700068036091670380916402909165020E94F9
:10208000780D8091640290916502019668E671E096
:102090000E9458319093650280936402CF91089515
:1020A000CF92DF92FF920F931F93CF93DF93F82E7F
:1020B00080916202909163020E942D22EF2DE6959D
:1020C000F0E0E453FD4FE491F0E08E179F07E8F154
:1020D0000E94212290936302809362020AE613E039
:1020E000C0E0D0E088E6C82EDD24D3948091600261
:1020F000909161028C0F9D1FB6010E94583198018A
:1021000040916803609167030E943C0C68960C5FE5
:102110001F4FC83681E0D80749F70E944D0D209126
:10212000600230916102F0FE0AC0C9010196BE0151
:102130000E945831909361028093600206C0215042
:1021400031093093610220936002DF91CF911F919A
:102150000F91FF90DF90CF900895AF92BF92CF92F2
:10216000DF92EF92FF920F931F93CF93DF93C82FCD
:1021700080FF02C01FEF01C011E080915E029091CC
:102180005F020E942D22C695EC2FF0E0E753FD4F31
:10219000E491F0E08E179F0708F466C00E942122A8
:1021A00090935F0280935E022AE6C22E23E0D22E35
:1021B0003CE6E32E33E0F32EC0E0D0E0F7013197A8
:1021C0001082F6011082F701108294E0A92EB12C42
:1021D00000E080915D02800F87FD815F082E000C7A
:1021E000990BC817D907E9F4809168038A9DA0016B
:1021F0008B9D500D11245595479555954795809188
:102200006503881F8827881F90916603592F550FF3
:1022100097FB992790F9960160916703852B0E949F
:102220003C0C010FF1E0AF1AB10899F6219684E059
:10223000C80ED11CE4E0EE0EF11CCF30D10509F040
:10224000BDCF0E944D0D80915D02113031F481119E
:1022500002C08EE007C0815005C090E00196BE012B
:102260000E946C3180935D02DF91CF911F910F919D
:10227000FF90EF90DF90CF90BF90AF9008950F93B5
:102280001F93CF93DF93C82F80915B0290915C02E4
:102290000E942D22EC2FF0E0EA53FD4FE491F0E094
:1022A0008E179F0708F464C00E94212290935C025D
:1022B00080935B0280E090E0FC01E659FC4F1182C4
:1022C0001082128204968C339105B1F7C0E0D0E001
:1022D0000FE010E0CE01B8010E946C31FC0180914A
:1022E0005A02082E000C990BEE0FFF1FEE0FFF1F76
:1022F000C817D907FCF080910301082E000C990B38
:102300008C179D07BCF09F0126593C4F80916503B7
:10231000881F8827881F90916603592F550F97FBB8
:10232000992790F94091680360916703852B0E947B
:102330003C0C05C0E659FC4F118210821282219696
:10234000CF30D10539F60E944D0D80910201909158
:102350005A02980F90935A0220910301280F20935C
:102360000301121614F49E301CF081958093020133
:10237000DF91CF911F910F910895EF92FF920F93EC
:102380001F93CF93DF9380915802909159020E943E
:102390002D22883E9340D0F10E9421229093590231
:1023A00080935802C0915602D09157022196C17075
:1023B000DD27D0935702C09356028AE6E82E83E0C9
:1023C000F82E10E008E7812F8695FE01E80FF11D39
:1023D000CF0181709927970140916803609167034D
:1023E000FC010E9FC0010F9F900D11240E943C0C18
:1023F0001F5FF4E0EF0EF11C1F3029F7DF91CF9142
:102400001F910F91FF90EF900C944D0DDF91CF91A4
:102410001F910F91FF90EF900895CF93DF9300D01D
:1024200000D0CDB7DEB780915402909155020E9442
:102430002D22E4ECF2E02591349182179307C0F14C
:102440008091530281110CC09E012F5F3F4F4FEFCF
:102450006FEF80E090E00E943C0C8A8180935302F1
:102460000E9421229093550280935402809152023F
:10247000813051F028F0823061F4409153020AC05B
:102480008091530240E007C06091530240E080E039
:1024900003C040E080E060E00E94640D8091520241
:1024A00090E0019663E070E00E946C3180935202EC
:1024B0000F900F900F900F90DF91CF9108950F9391
:1024C0001F93CF93DF9380915002909151020E940D
:1024D0002D22843F914008F448C00E94212290930D
:1024E000510280935002CAE6D3E000E010E0209150
:1024F0004E0230914F028091650390916603073040
:1025000011051CF4232B79F002C0232B61F4881FE2
:102510008827881F592F550F97FB992790F99E01FF
:10252000409168030AC0881F8827881F592F550FBC
:1025300097FB992790F99E0140E060916703852BF6
:102540000E943C0C0F5F1F4F24960F30110579F647
:102550000E944D0D80914E0290914F020196817024
:10256000992790934F0280934E02DF91CF911F9154
:102570000F91089580916B028823D9F190916503A2
:10258000892F86958F732EE3280F2F73243018F42C
:1025900082500C94C90F2AE3280F2F73233018F4AC
:1025A00086500C94201027E3280F2F73263018F440
:1025B00089500C94501021E3280F2F73263018F403
:1025C0008F500C94AD102BE2280F2F73233018F48A
:1025D00085510C943F11892F8E77803311F40C9420
:1025E000BD11863411F40C940D12883411F40C943E
:1025F0005F120895882319F05198599A02C0519A90
:1026000059985098589A95E09A95F1F70000509A89
:10261000589895E09A95F1F70000882311F0519AA7
:10262000599885E08A95F1F7000008958BB18C7F69
:102630008BB95098589A5198599A85E08A95F1F734
:10264000000008958AB18C7F8AB985E08A95F1F7F8
:102650000000519A599885E08A95F1F70000509A48
:10266000589885E08A95F1F7000008955098589A97
:1026700085E08A95F1F700005198599A85E08A958E
:10268000F1F700000895CF93DF93D82FC8E08D2F86
:1026900080780E94FA12DD0FC150C9F780E00E94D5
:1026A000FA1285E08A95F1F7000085E08A95F1F746
:1026B000000080E0DF91CF9108952BB1342F309549
:1026C00023233BB1432B3FB7F894FC01680F791FDC
:1026D000E617F70789F0819198E04BB9000000C038
:1026E00087FF2BB9880F000000C000C000C02BB9C5
:1026F00000C09A9591F7ECCF3FBF0895AF92BF927B
:10270000CF92DF92EF92FF920F931F93CF93DF93BD
:102710008C01EB01CFB6D090BC00F8948091BC0046
:102720008B7F8093BC000E9416130E94221384E8C2
:102730000E944313CC0FDD1FCC0FDD1F7801580121
:10274000AC0EBD1EEA14FB0431F0F70181917F014C
:102750000E944313F7CF0E943613CFBED092BC0025
:10276000579A40E8BE01C801DF91CF911F910F91A8
:10277000FF90EF90DF90CF90BF90AF900C945D13DF
:1027800090937202809371020895E0917102F0912A
:102790007202309721F00190F081E02D099480E0E1
:1027A0000895E0917102F0917202309799F02091B2
:1027B0002001222359F02091AC0327FF07C0DC0140
:1027C0002C9111962C93119725E02C930280F38184
:1027D000E02D09940895E0917102F0917202309712
:1027E00039F022E0DC012C930480F581E02D09947E
:1027F000089520916F02309170028217930771F053
:102800009093700280936F02E0917102F0917202D6
:10281000309721F00680F781E02D099408952091EA
:102820006D0230916E028217930771F090936E02E1
:1028300080936D02E0917102F0917202309721F065
:102840000084F185E02D0994089585B7806885BFDF
:1028500085B7806885BF0895089508950C942D1458
:1028600008950C9430140E9425140E942C140C948A
:102870002E1481E008950E9418220E9443030E94B2
:10288000AF220E94700F0C943114CF92DF92EF921E
:10289000FF920F931F93CF93DF93CDB7DEB72B97A4
:1028A0000FB6F894DEBF0FBECDBF0E9415040E9484
:1028B0003914811111C08FEF89838A831B820E9492
:1028C00021228160782F9D838C8349815A816B817D
:1028D0008D810E94291556C084E7C82E82E0D82E2B
:1028E00000E010E0E02E802F0E945D04F60141918F
:1028F0006F01F42EF82631F40F5F1F4F0E301105D3
:1029000089F7D9CF90912F0391FF04C08B870E9444
:1029100063048B8520E030E04F2D50E0922FBA0108
:10292000022E02C0759567950A94E2F760FF24C0F5
:102930002E83EF8221E030E0690102C0CC0CDD1C67
:102940009A95E2F790E08C219D21892B09F420E0F3
:1029500028870E9421228160782F9A8789874E815B
:102960005F8168858A850E942915F801EC58FD4F22
:102970008081C826C08206C02F5F3F4F26303105B8
:1029800069F6BACF0E944224109173020E94C513C7
:102990001817A1F00E94C513809373022B960FB6EF
:1029A000F894DEBF0FBECDBFDF91CF911F910F9185
:1029B000FF90EF90DF90CF900C9446062B960FB6C9
:1029C000F894DEBF0FBECDBFDF91CF911F910F9165
:1029D000FF90EF90DF90CF900895DC0111962C913D
:1029E00011978C91682F70E041E050E001C0440FD6
:1029F0008A95EAF712968C91129730E0882329F095
:102A0000809192028823E9F006C0F901EE57FD4F4C
:102A100090819423B1F086E0829FF001839FF00DB6
:102A20001124E60FF71FEE0FFF1FEF5DFE4F8081B1
:102A300091818D939C93F901EE57FD4F8081482B36
:102A400006C0F901EE57FD4F409580814823408331
:102A50000895CF93DF93CDB7DEB72B970FB6F894D9
:102A6000DEBF0FBECDBF942F4F83252F58876987B8
:102A70007A878B874A855B85452B21F02F3F09F5A7
:102A80009F3FF9F4DE01119686E0FD0111928A95CF
:102A9000E9F785E0FE01379601900D928A95E1F7FE
:102AA00049815A816B817C818D819E810E94D81CD5
:102AB0002B960FB6F894DEBF0FBECDBFDF91CF913E
:102AC0000895CE0107960E94ED14DCCFFC018081B1
:102AD00091810E94A61F92959F70963041F480913B
:102AE000920291E089278093920290939102089537
:102AF000CF93DF931F92CDB7DEB7882309F42DC1A2
:102B0000682F8238C1F40E94C51381FD26C169E394
:102B100080910F01909110010E9474210E94342035
:102B20002FEF81EE94E0215080409040E1F700C00B
:102B3000000069E319C0833811F50E94C51380FDB8
:102B40000CC163E580910F01909110010E947421E6
:102B50000E9434202FEF81EE94E02150804090407D
:102B6000E1F700C0000063E580910F019091100132
:102B70000E947F210F90DF91CF910C9434208438F4
:102B8000C1F40E94C51382FDE8C067E480910F0183
:102B9000909110010E9474210E9434202FEF81EE49
:102BA00094E0215080409040E1F700C0000067E4CD
:102BB000DBCF8CEF860F813A70F4862F69830E94F9
:102BC0004B2669818111C9C080910F01909110013C
:102BD0000E947421CFCF80E2860F883048F467705E
:102BE00081E001C0880F6A95EAF70E94E81FC2CF12
:102BF0008BE5860F833088F4653A29F0663A31F028
:102C000083E890E005C081E890E002C082E890E0AF
:102C10000F90DF91CF910C94F91388E5860F8731DF
:102C200008F091C0683A09F445C0693A09F445C012
:102C30006A3A09F445C06B3A09F445C06C3A09F4A4
:102C400045C06B3B09F445C06C3B09F445C06D3A87
:102C500009F445C0603B09F445C06E3A09F445C02B
:102C60006F3A09F445C0613B09F445C0623B09F481
:102C700045C0633B09F445C0643B09F445C0653B6E
:102C800009F445C0663B09F445C0673B09F445C0FB
:102C9000683B09F445C0693B09F445C06D3B09F444
:102CA00045C06E3B09F445C06A3B09F445C080E06D
:102CB00090E044C082EE90E041C089EE90E03EC0DA
:102CC0008AEE90E03BC085EB90E038C086EB90E068
:102CD00035C083EB90E032C084EB90E02FC087EBEF
:102CE00090E02CC08CEC90E029C08DEC90E026C0E8
:102CF00083E891E023C08AE891E020C082E991E076
:102D00001DC084E991E01AC081E292E017C083E21D
:102D100092E014C084E292E011C085E292E00EC01D
:102D200086E292E00BC087E292E008C08FE690E076
:102D300005C080E790E002C08AE292E00F90DF9148
:102D4000CF910C940F14603F40F0862F0E944A23CD
:102D50000F90DF91CF910C9437240F90DF91CF919A
:102D60000895882309F464C0823879F40E94C51359
:102D700081FF5EC069E380910F01909110010E9474
:102D800074210E94342069E310C08338B1F40E949A
:102D9000C51380FF4DC063E580910F019091100134
:102DA0000E9474210E94342063E580910F0190916C
:102DB00010010E947F210C943420843879F40E9401
:102DC000C51382FF35C067E480910F019091100117
:102DD0000E9474210E94342067E4E7CF9CEF980F93
:102DE000913A10F4682FE1CF90E2980F983050F4A8
:102DF000877091E001C0990F8A95EAF7892F0E94A8
:102E0000EE1FD9CF9BE5980F933020F480E090E03F
:102E10000C94F91398E5980F973120F480E090E036
:102E20000C940F14803F20F00E94B2230C9437249E
:102E30000895CF93C82F0E9478158C2FCF910C94B2
:102E4000B116882321F00E94E81F0C9434200895C5
:102E5000882321F00E94EE1F0C94342008958F9255
:102E60009F92AF92BF92DF92EF92FF920F931F93C8
:102E7000CF93DF937C01D62FC72FFC0105810295EC
:102E80000F70128111110E9408200E94DE1F8823FA
:102E900079F0112369F080E28D0F883048F082E0EC
:102EA0000E947F200E94DE1F91E0D82ED92601C00B
:102EB000D12CAC2EA2948FE0A822B12CF501E159BF
:102EC000FF4F0C9480318C2F807FCF70882311F0BE
:102ED000C295C07F112399F0CC2309F4C8C180E2C8
:102EE0008D0F883010F0D11104C08C2F0E94E81F84
:102EF00003C08C2F0E94FB1F0E943420B8C18D2F6D
:102F00000E94B116CC2309F42EC280E28D0F8830C6
:102F100010F0D11104C08C2F0E94EE1F03C08C2F23
:102F20000E9401200E9434201EC28C2F807FCF700F
:102F3000803211F0C295C07FDD2319F0D130C9F085
:102F400021C0112371F0002341F0013031F40E94BF
:102F50001B208C2B0E94212006C20E941B208C2B40
:102F60003FC1002319F0013009F4FDC10E942A205D
:102F700011C0112321F0023008F0F5C107C0011182
:102F8000F2C108C0112321F0011171C18C2F28C199
:102F900001117EC18C2F2AC18C2F86958695837056
:102FA00090E0009719F0019761F0DDC1112321F045
:102FB0008D2F9C2F937002C080E090E00E94F91347
:102FC000E2C1112321F08D2F9C2F937002C080E06D
:102FD00090E00E940F14D7C11123F9F0D53F51F0B2
:102FE000D63F71F0D43FA9F48091A6039091A70336
:102FF00081600BC08091A6039091A703826005C0F9
:103000008091A6039091A70384609093A703809377
:10301000A6038D2F0E944A231EC0D53F51F0D63FF4
:1030200071F0D43FA9F48091A6039091A7038E7FFD
:103030000BC08091A6039091A7038D7F05C080915E
:10304000A6039091A7038B7F9093A7038093A60379
:103050008D2F0E94B2230E94372495C18C2F83703C
:1030600009F050C011118BC18D2F82958695877004
:10307000880F880F9D2F9F70892E912CA12CB12C29
:10308000082E04C0880C991CAA1CBB1C0A94D2F7F9
:10309000D4FF14C00FE010E020E030E0B901A80137
:1030A00004C0440F551F661F771F8A95D2F7CB01C6
:1030B000BA01609570958095909503C060E070E0CE
:1030C000CB01C695C695C370D0E0C230D10561F082
:1030D000C330D10581F0682979298A299B29219754
:1030E00071F00E941D1E4BC1682979298A299B29EC
:1030F0000E942F1E44C10E941D1EC501B4010E94E2
:103100000B1E3DC1112319F08C2F817001C08695D3
:10311000882309F434C18D2F829586958770880F96
:10312000880F9D2F9F70892E912CA12CB12C082ED9
:1031300004C0880C991CAA1CBB1C0A94D2F7D4FFAB
:1031400014C00FE010E020E030E0B901A80104C095
:10315000440F551F661F771F8A95D2F7CB01BA011E
:10316000609570958095909503C060E070E0CB010C
:10317000C695C695C3704C2F50E04230510569F09A
:103180004330510589F0682979298A299B294130E2
:10319000510571F00E94E31EF2C0682979298A293D
:1031A0009B290E94F51EEBC00E94E31EC501B401DD
:1031B0000E94D11EE4C08D2F90E0FC01E05EF10979
:1031C000E531F10508F04FC0E158FF4F0C94803114
:1031D000DF708C2F8F71112331F00E946A1E8D2FAA
:1031E0000E942117C0C00E948B1E8D2F0E9428179D
:1031F000BAC0112339F00111B6C08C2F8F710E9413
:10320000B01EB1C0023008F0AEC0F7CF112339F0C4
:103210008C2F8F710E946A1EA6C01123C9F38C2FB8
:103220008F710E948B1E9FC0112329F08C2F8F71EC
:103230000E94551E98C00E94501E95C0112349F04F
:10324000CF718C2F0E946A1E63E08C2F0E946A202F
:103250008AC081E00E947F20023008F484C082E0AE
:103260000E947F2080C0112331F0002389F28D2F2E
:103270000E94781578C0002391F2D93349F45FEFAA
:1032800067EE73E0515060407040E1F700C000000D
:103290008D2F0E94B11667C04C2F4F706D2FC70144
:1032A0000E94F2080E947C1D6EC0D23FB1F028F44B
:1032B000D03F49F0D13FF9F028C0D43FB9F058F0E1
:1032C000D53F71F022C0112309F447C090919202BA
:1032D00081E0892708C081E01827109392023DC041
:1032E00011113BC081E08093920237C0111135C0AB
:1032F0001092920232C0112329F08091910288230A
:1033000029F329C0002311F328C0809191020023E2
:10331000C1F0882341F09091920281E08927809347
:103320009202109291028D2F112319F00E947815AC
:1033300014C00E94B11686E0F70111928A95E9F750
:103340000CC0882351F0111108C09091920281E0C5
:10335000892780939202109291024C2F4F706D2F0B
:10336000C7010E94F508F8E0AF16B10441F05CF027
:103370004AE0A41AB10852E0A516B10420F40E9454
:10338000C5130E944606DD20E1F00E94DA1F80FD91
:1033900018C0F70112820E94D41F0E946A1EC70142
:1033A0000E94ED190E94D41FDF91CF911F910F91C0
:1033B000FF90EF90DF90BF90AF909F908F900C9414
:1033C0008B1EDF91CF911F910F91FF90EF90DF90B7
:1033D000BF90AF909F908F9008950F931F93CF93BE
:1033E000DF93EC01888199812B813C81232BB9F0FB
:1033F0009F3F11F48F3F99F0CE010E945806882319
:1034000071F0688179818A810E94B11F8C010E94CC
:10341000071F0E94081EB801CE010E942F17DF91DE
:10342000CF911F910F9108950E9408200E941820AB
:103430000E9434200E94DD240E94372480E090E026
:103440000E94F91380E090E00C940F1480910F011A
:10345000909110010E948A210C94141A0E94F81F66
:103460000C94261AE92FE295EF70F0E03297EE30D7
:10347000F105B0F4EC56FF4F0C948031803F91F091
:1034800018F4803E68F40EC0843F51F40BC0803EB7
:1034900048F0813F29F406C093FB882780F90895FE
:1034A00080E0089581E008950E94A61F0E94321ACC
:1034B0000895CF93DF9300D000D01F92CDB7DEB731
:1034C0000F900F900F900F900F90DF91CF91089574
:1034D000CF93DF9300D000D000D0CDB7DEB72696D3
:1034E0000FB6F894DEBF0FBECDBFDF91CF91089528
:1034F0001F93CF93DF93C091930216E080919402C3
:10350000C81799F0D0E01C9FF0011D9FF00D112409
:10351000EB56FD4F40815181628173818481958199
:103520000E94681A2196C770E9CFDF91CF911F9151
:1035300008954091C5025091C6026091C7027091F2
:10354000C8028091C9029091CA020C94681A8091B5
:10355000CA0282958F7009F054C08091C7028823F7
:1035600009F44FC080919302A09194026091C5022A
:103570007091C6024091C8025091C902B6E08A1704
:1035800009F43FC090E041155105C1F17F3F11F4AE
:103590006F3FA1F1B89FF001B99FF00D1124EB56D8
:1035A000FD4F218172132AC02081621327C022811E
:1035B000211124C0238134812417350710F42150B0
:1035C0003109241B350B283C3105C0F42091CA0277
:1035D0002F7020612093CA0226E0289FF001299FC6
:1035E000F00D1124E656FD4F80818F70806180833D
:1035F00085EC92E00E94ED190C94781A0196877080
:10360000BECF0895CF92DF92EF92FF920F931F9358
:10361000CF93DF93CDB7DEB762970FB6F894DEBFD6
:103620000FBECDBF8C0185E0F801DE011D96019033
:103630000D928A95E1F7D8014C9111965C91119702
:1036400012966C9112971396CD90DC90149730914E
:10365000C5027091C6028091C8029091C90200977C
:1036600009F46BC17F3F19F43F3F09F466C1E09054
:10367000C702EE2009F4C0C02091CA02C816D906BC
:1036800028F0F601E81BF90BCF0104C08095909556
:103690008C0D9D1DFF24F394883C910578F0F12C4E
:1036A000207F09F0C6C07C2DD98AC88A89890E94EA
:1036B000591A85EC92E00E94ED19B1C0822F807FEB
:1036C00009F046C0751314C0341312C0611110C044
:1036D0002F7020612093CA020E94991A85EC92E013
:1036E0000E94ED198091CA02D80115968C932EC0C4
:1036F000CD2819F15F3F11F44F3FF9F0F62E61111B
:103700001CC0809193022091940236E0821709F444
:103710005AC090E0389FF001399FF00D1124EB560C
:10372000FD4F7181571306C07081471303C072812A
:10373000711103C001968770E9CFF62E662309F454
:1037400027C18091CA0281608093CA02F12C20C1F6
:10375000751308C0341306C0611104C08091CA02F9
:10376000D801C3C04D875E878D859E856A8B0E9478
:10377000541A6A898823E1F16623D1F12091CA02A3
:10378000822F82958F7090E0029774F08091C5022D
:103790009091C60298878F831986DB86CA862C870C
:1037A000CE0107960E94ED1986E0F801A5ECB2E083
:1037B00001900D928A95E1F70E94A71A0E94991A2A
:1037C000FF24F394E5C04D875E878D859E850E941A
:1037D000A61F292F22952F7030E0223031050CF0E2
:1037E000CBC09F7009F0C5C0805E883008F4D0C09F
:1037F000C8010E94ED19E4CFC816D90608F453C0D9
:10380000F601E81BF90BCF01883C910508F450C084
:10381000F12C7C2DD98AC88A89890E94591AE5EC35
:10382000F2E086E0DF011D928A95E9F70E94991A7D
:10383000AFC0751314C0341312C0611110C0809151
:10384000CA02F8018583C8010E94ED1986E0E5EC03
:10385000F2E0DF011D928A95E9F7FE2C99C04D87B1
:103860005E878D859E856A8B0E94541A6A8988239B
:1038700009F4BECF662309F4BBCF2091CA02822F80
:1038800082958F7090E002970CF48ECF8091C502E4
:103890009091C6029A8389831B82DD82CC822E831B
:1038A000CE0101967FCF809590958C0D9D1DACCF5C
:1038B000F62E662309F49CCF75132EC034132CC04A
:1038C0002091CA0220FD1FC0822F82958F70D9F0EF
:1038D000D80115962C9315978F3049F08F5F982F4C
:1038E0009295907F822F8F70892B15968C93C801AB
:1038F0000E94ED1986E0F801A5ECB2E001900D926E
:103900008A95E1F793CF86E0F801A5ECB2E001904B
:103910000D928A95E1F73CC04D875E878D859E8527
:103920000E94541A811140CF8091CA028160809315
:10393000CA02C8010E94ED192BC0662309F458CFB2
:103940004D875E878D859E850E94541AF82E8823A8
:1039500009F44ECF86E0F801A5ECB2E001900D929B
:103960008A95E1F785EC92E00E9466150E94A71AFD
:103970005DCF811139CF0CC0243031050CF038CF28
:103980009F7009F431CFF8019581907F09F02CCF19
:103990008F2D62960FB6F894DEBF0FBECDBFDF91BC
:1039A000CF911F910F91FF90EF90DF90CF900895EE
:1039B0001F93CF93DF93CDB7DEB72C970FB6F89454
:1039C000DEBF0FBECDBF4F83588769877A878B874D
:1039D0009C87CE0107960E94021B882369F08F8185
:1039E00098852A853B85232BF1F19F3F09F063C021
:1039F0008F3F09F060C037C086E0FE013796DE01D8
:103A0000119601900D928A95E1F76F817885EA858C
:103A1000FB85309741F17F3F11F46F3F21F12091F9
:103A2000940230E0C9010196877099274091930272
:103A300050E08417950709F447C069837A83FD83B2
:103A4000EC8396E0929FD001939FB00D1124AB566A
:103A5000BD4FFE01319601900D929A95E1F780934A
:103A600094020E94781A16E0809193029091940239
:103A70008917C1F1189FC00111248B569D4F0E94D8
:103A8000021B882379F1E09193021E9FF00111241B
:103A9000EB56FD4F40815181628173818481958114
:103AA0000E94681A8091930290E00196877099278E
:103AB00080939302D9CF4F81588569857A858B850C
:103AC0009C850E94681ACFCF0E942E1A10929402F1
:103AD00010929302E5ECF2E086E0DF011D928A95F8
:103AE000E9F7C1CF2C960FB6F894DEBF0FBECDBF5D
:103AF000DF91CF911F910895EF92FF920F931F9343
:103B0000CF93DF938C01892B09F46CC0F12CEE2448
:103B1000E394E8012196F8018491843740F48430DD
:103B200008F051C0813081F0823019F15BC08537D7
:103B300009F444C0A8F19CE7980F903708F052C0F0
:103B40008F770E94B11641C00E5F1F4FFE01C491D6
:103B500080E28C0F883048F4C7708E2D01C0880F2A
:103B6000CA95EAF70E940B2014C08C2F0E9478158A
:103B70002DC00E5F1F4FFE01C49180E28C0F883074
:103B800058F4C7708E2D01C0880FCA95EAF70E94BD
:103B900011200E9434201AC08C2F0E94B11616C02A
:103BA0000E5F1F4FFE01C491CC2381F08FE99FE08F
:103BB0000197F1F700C00000C150F6CF0E5F1F4F14
:103BC000FE01F49003C00E9478158E018F2D88238A
:103BD00009F49FCFEFE9FFE03197F1F700C0000053
:103BE0008150F5CFDF91CF911F910F91FF90EF9012
:103BF000089508950C94F91D0E94FA1D6093060320
:103C00007093070380930803909309030C94141A8C
:103C100008950C94FC1D0F931F93009106031091BF
:103C200007032091080330910903602B712B822B2D
:103C3000932B1F910F910C94FC1D0F931F930091D8
:103C400006031091070320910803309109036023B4
:103C50007123822393231F910F910C94FC1D0F93CA
:103C60001F930091060310910703209108033091E0
:103C7000090360277127822793271F910F910C94C6
:103C8000FC1D08950C94411E0E94421E6093020385
:103C90007093030380930403909305030C94141A08
:103CA00060E070E0CB010C94441E0F931F9341E041
:103CB00050E060E070E08A019B0104C0000F111F1A
:103CC000221F331F8A95D2F7C901B8011F910F91A6
:103CD0000C94441E0F931F9341E050E060E070E0AD
:103CE00004C0440F551F661F771F8A95D2F7809135
:103CF000020390910303A0910403B09105038A018C
:103D00009B01082B192B2A2B3B2BC901B8011F91B2
:103D10000F910C94441E0F931F9341E050E060E01C
:103D200070E004C0440F551F661F771F8A95D2F7B5
:103D30004095509560957095809102039091030392
:103D4000A0910403B09105038A019B010823192364
:103D50002A233B23C901B8011F910F910C94441EE3
:103D60000F931F9341E050E060E070E004C0440F07
:103D7000551F661F771F8A95D2F780910203909195
:103D80000303A0910403B09105038A019B01082756
:103D900019272A273B27C901B8011F910F910C94BD
:103DA000441E0F931F93009102031091030320916F
:103DB000040330910503602B712B822B932B1F91F1
:103DC0000F910C94441E0F931F93009102031091C6
:103DD00003032091040330910503602371238223A0
:103DE00093231F910F910C94441E0F931F930091E6
:103DF000020310910303209104033091050360270F
:103E00007127822793271F910F910C94441E0895C8
:103E1000292F220F920F990F890FA82FA695A695EB
:103E2000A695877051E001C0550F8A95EAF785E0A5
:103E3000A89FD001112420E030E070E0F901EA0FE2
:103E4000FB1FE553FD4F4081CB01022E02C096952A
:103E500087950A94E2F781709927819584278523B5
:103E6000842780832F5F3F4F2530310539F7089530
:103E7000292F220F920F990F890F682F669566954B
:103E80006695982F977085E0689FB001112440E0F7
:103E900050E080E0FA01E60FF71FE553FD4F208167
:103EA00030E0092E02C0369527950A94E2F721707A
:103EB0003327042E01C0220F0A94EAF7822B4F5FAA
:103EC0005F4F4530510531F70895BF92CF92DF9291
:103ED000EF92FF920F931F93CF93DF938C01C090CB
:103EE0000603D0900703E0900803F0900903809147
:103EF000020390910303A0910403B0910503C82A23
:103F0000D92AEA2AFB2ACFE1D0E0D701C6010C2E3C
:103F100004C0B695A795979587950A94D2F780FF28
:103F200007C0BC2EB8018C2F0E941009019719F40C
:103F3000219758F7B12C8B2DDF91CF911F910F91C5
:103F4000FF90EF90DF90CF90BF900895CF93DF93D5
:103F5000EC010E94651FBE010E941009DF91CF9104
:103F600008951F93CF93DF93EB01909190029923D3
:103F700021F0CB010E94A61F13C0882349F0CB017A
:103F80000E94651F182F682FCE010E94081F04C0D1
:103F9000CB010E94381F182FBE01812F0E941009EB
:103FA000DF91CF911F91089580910A0385958595A2
:103FB0008595089580910A038770089590910A036A
:103FC000977081E009F480E0089580912E030895B0
:103FD00090912E03892B80932E03089580959091C4
:103FE0002E03892380932E03089580932E03089532
:103FF00010922E03089590912D03892B80932D0309
:104000000895809590912D03892380932D03089521
:1040100010922D03089590912C03892B80932C03EB
:104020000895809590912C03892380932C03089503
:1040300010922C03089580910B03089508950C9419
:104040001E2090910B03981721F080930B030C9482
:104050001F20089580910B03882329F010920B03F1
:1040600080E00C941F200895E0910F01F091100161
:1040700080912E038083E0910F01F09110019081D7
:1040800080912D03892B8083E0910F01F091100125
:10409000908180912C03892B808380910B0388234E
:1040A00081F0E0910F01F09110019081892B8083C4
:1040B00080910F01909110010E940F2181110E94A7
:1040C0002A2080910F01909110010C94D113089532
:1040D0000C94672098E0899F90011124262B20934F
:1040E0000A030E946A1E80910A038595859585952D
:1040F0000C94682010920A0380E00C9468202091B0
:104100000A038095822380930A03982F977079F48D
:1041100030E0482F082E000C550B2417350739F0D6
:104120008595859585950E948B1E0C947A2008951F
:1041300080E090E00E94A13121E08D3E9E4F09F089
:1041400020E0822F089582E090E00C94933183E088
:1041500090E00C94933184E090E00C949331682FBC
:1041600084E090E00C94A731AB01BC018FE090E0BB
:104170000C94B931AB01BC0183E190E00C94B931EE
:1041800060E070E0CB010C94BA2060E070E0CB01FD
:104190000E94B4200C94C0206DEE7EEF80E090E091
:1041A0000E94C53160E082E090E00E94A73160E0AB
:1041B00083E090E00E94A73110920603109207035B
:1041C000109208031092090360E084E090E00E94DE
:1041D000A73160E085E090E00E94A73160E086E0D2
:1041E00090E00E94A7316FEF87E090E00E94A73136
:1041F00040E050E0BA0188E090E00E94B93160E010
:104200008DE090E00E94A73140E050E0BA0188E1E3
:1042100090E00E94B9310C94C5200C94CC20FC0194
:10422000329680912001882331F08091AC0387FF82
:1042300002C09EE101C096E080E0915028F02191FB
:104240002223D9F38F5FF9CF08959C01FC013296A8
:104250009FEF80E04191461789F09F3F19F441118B
:1042600001C0982F8F5F8630A9F79F3F39F0F90181
:10427000E90FF11D97FDFA95628308950895FC01F9
:10428000329608962081261301C010823196E817D5
:10429000F907C1F70895262F2695269526952E31E4
:1042A00068F4FC01E20FF11D677021E030E001C00D
:1042B000220F6A95EAF78281282B22830895262F00
:1042C0002695269526952E3170F4FC01E20FF11DFE
:1042D000677021E030E001C0220F6A95EAF720956F
:1042E000828128232283089520912001222329F00E
:1042F0002091AC0327FD0C944B210C942521209197
:104300002001222329F02091AC0327FD0C945F218A
:104310000C943F2120912001FC013296222331F0A0
:104320008091AC0387FF02C08EE101C086E0DF010F
:104330001D928A95E9F7089508950C949C210E9496
:104340009D218091B203843049F11092300320E422
:1043500088E190E00FB6F894A895809360000FBEB6
:104360002093600080E00E9446060E949D2183B752
:10437000817F846083BF83B7816083BF7894889591
:1043800083B78E7F83BF0FB6F894A89580916000A5
:10439000886180936000109260000FBE08950895B8
:1043A000CF930E946C030E9415040E94CF21C0E0AD
:1043B0008C2F0E945D04811104C0CF5FCE30C1F705
:1043C00001C081E0CF91089508950C94E4210E94EA
:1043D0002E1A0E94C5130E9446060C94E5211F92D6
:1043E0000F920FB60F9211248F939F93AF93BF93A9
:1043F00080913003811113C08091A8039091A9038B
:10440000A091AA03B091AB034196A11DB11D809369
:10441000A8039093A903A093AA03B093AB03BF9101
:10442000AF919F918F910F900FBE0F901F90189595
:1044300082E084BD93E095BD9AEF97BD80936E00B6
:1044400008952FB7F8948091A8039091A903A091A3
:10445000AA03B091AB032FBF0895CF92DF92EF92E2
:10446000FF920F931F932FB7F8944091A803509198
:10447000A9036091AA037091AB032FBF6A017B016E
:10448000EE24FF248C0120E030E0C016D106E206C5
:10449000F30610F4415051099A01281B390BC90148
:1044A0001F910F91FF90EF90DF90CF900895789437
:1044B0001F920F920FB60F9211248F939F93AF9379
:1044C000BF938091A8039091A903A091AA03B091F2
:1044D000AB030196A11DB11D8093A8039093A9037E
:1044E000A093AA03B093AB03BF91AF919F918F911B
:1044F0000F900FBE0F901F901895F89481E0809355
:10450000E00080E28093D800E9ECF0E010828FE1D7
:104510009EE40197F1F700C000001DBA10926800F8
:104520001CBC10BE1FBA10927A0010926E0010923E
:104530006F0010927100109272001082ECEBF0E0AC
:10454000108214B817B81AB81DB810BA108215B86E
:1045500018B81BB81EB811BA0C94003F08950E94F9
:104560009820811102C00E940D210E94A3208093F7
:104570002F030E94AB2090E09093AD038093AC0397
:104580000E94A720682F70E080E090E00C94091E44
:104590008091340380FF0BC06091140185E0689F17
:1045A000B001112475956795759567952BC081FFAE
:1045B00009C06091140185E0689FB00111247595D0
:1045C000679520C082FF07C06091140185E0689F55
:1045D000B001112417C0909135039923D1F0609157
:1045E0001301961788F72091140185E0289F900108
:1045F0001124929FA001939F500D112470E0CA01D5
:104600000E946C316038710540F46115710539F014
:1046100002C065E070E0862F08958FE7089581E07D
:1046200008958091340380FF08C06091120170E00A
:10463000759567957595679521C081FF06C0609156
:10464000120170E07595679519C082FF04C06091F2
:10465000120170E010C0909135039923C1F0609170
:1046600011019617A0F780911201899FC0011124B2
:1046700070E00E946C316038710528F46115710595
:1046800021F0862F08958FE7089581E0089561E075
:1046900070E0F4CF803F21F40E94C822819504C0CD
:1046A000813F29F40E94C822809339030895823FF4
:1046B00021F40E94C822819504C0833F29F40E94FE
:1046C000C822809338030895893F19F40E9411236A
:1046D00005C08A3F31F40E941123819580933A03EB
:1046E00008958B3F21F40E941123819504C08C3FD3
:1046F00029F40E94112380933B030895843F21F401
:1047000080913703816017C0853F21F48091370382
:10471000826011C0863F21F48091370384600BC012
:10472000873F21F480913703886005C0883F31F4CA
:104730008091370380618093370308958D3F21F482
:104740008091340381600BC08E3F21F4809134034B
:10475000826005C08F3F29F4809134038460809388
:1047600034030895803F39F48091390387FF6CC08A
:104770001092390369C0813F29F4809139031816DA
:10478000BCF362C090913803823F29F497FF5CC06C
:104790001092380359C0833F19F41916CCF354C052
:1047A000893F41F480913A0318160CF04DC01092E5
:1047B0003A034AC08A3F29F480913A0387FF44C0F4
:1047C000F6CF8B3F39F480913B0387FF3DC01092B9
:1047D0003B033AC08C3F29F480913B031816BCF38D
:1047E00033C0843F21F4809137038E7F17C0853F0B
:1047F00021F4809137038D7F11C0863F21F4809191
:1048000037038B7F0BC0873F21F480913703877F6D
:1048100005C0883F31F4809137038F7E8093370342
:1048200013C08D3F21F4809134038E7F0BC08E3FE7
:1048300021F4809134038D7F05C08F3F29F480914E
:1048400034038B7F809334038091380381110EC031
:104850008091390381110AC080913A03811106C009
:1048600080913B03811102C010923503089586E3C5
:1048700093E00E94EB130E942122909332038093D5
:10488000310308951F93CF93DF938091310390916B
:1048900032030E942D22AC0190913503992321F01F
:1048A0002091150130E006C0209133038AE0289F53
:1048B000900111244217530708F47BC080913803FC
:1048C000C0913903D0913A0310913B03811107C085
:1048D000C1116BC0D11169C0111167C06AC09F3F7F
:1048E00019F09F5F90933503181624F40E94C82294
:1048F000809338038091380387FF05C00E94C82247
:104900008195809338031C1624F40E94C82280935A
:1049100039038091390387FF05C00E94C822819521
:1049200080933903309138033323E1F02091390328
:104930002223C1F045EB3403C0011124892F990FC4
:10494000990B009709F481E08093380335EB23033A
:10495000C0011124892F990F990B009709F481E068
:10496000809339031D1624F40E94112380933A0387
:1049700080913A0387FF05C00E941123819580939F
:104980003A03111624F40E94112380933B03809173
:104990003B0387FF05C00E941123819580933B0351
:1049A000DF91CF911F910C9437249F3F09F099CF4D
:1049B000A1CFDF91CF911F910895E6E3F3E086E068
:1049C000DF011D928A95E9F71092350310923403A6
:1049D0000895833081F128F4813059F08230D1F08C
:1049E0000895853009F449C0B8F1863009F456C0FD
:1049F000089580913303262F30E0280F311D2F3F7B
:104A0000310524F4680F6093330308958FEF80938A
:104A10003303089580911501262F30E0280F311DB2
:104A20002F3F310524F4680F6093150108958FEF2F
:104A300080931501089580911401262F30E0280FEE
:104A4000311D2F3F310524F4680F60931401089540
:104A50008FEF80931401089580911301262F30E089
:104A6000280F311D2F3F310524F4680F6093130187
:104A700008958FEF80931301089580911201262FDE
:104A800030E0280F311D2F3F310524F4680F60936B
:104A9000120108958FEF8093120108958091110102
:104AA000262F30E0280F311D2F3F310524F4680FE9
:104AB0006093110108958FEF809311010895833061
:104AC00011F128F4813049F0823091F00895853059
:104AD00081F120F18630C1F1089580913303681788
:104AE00020F4861B809333030895109233030895B6
:104AF00080911501681720F4861B80931501089595
:104B000010921501089580911401681720F4861BF6
:104B10008093140108951092140108958091130157
:104B2000681720F4861B80931301089510921301D7
:104B3000089580911201681720F4861B809312015A
:104B4000089510921201089580911101681720F4C0
:104B5000861B8093110108951092110108950F93FF
:104B60001F93482F50E0FA013597EF33F10508F015
:104B70007FC0EE55FF4F0C9480310E940D2171C013
:104B800080912F03817F8E7F80932F0381E080931C
:104B90003D036FC00E942E1A0FEF13ED20E301506A
:104BA00010402040E1F700C000000E947D2259C063
:104BB00080912F03982F9095917090FB80F98093AE
:104BC0002F0391114EC0897F877F10C080912F03E2
:104BD00081FB222720F991E0922790FB81F98093B5
:104BE0002F039923F1F180912F03816080932F038C
:104BF00038C080912F0382FB222720F991E0922771
:104C000090FB82F9ECCF80912F0383FB222720F9C0
:104C100091E0922790FB83F9E2CF0E942E1A8091B7
:104C2000AC0387FB222720F991E0922790FB87F9BC
:104C30008093AC0316C0895301C08D5141E050E010
:104C400060E070E08A019B0104C0000F111F221F69
:104C5000331F8A95D2F7C901B8010E94091E0E942C
:104C60002E1A81E006C061E070E080E090E0F5CFB0
:104C700080E01F910F91089580E0089580E00895ED
:104C80008E518A3030F4E82FF0E0E753FE4F8081F8
:104C9000089580E00895CF93C82F80913D0381301F
:104CA00071F018F08230E1F184C00E94E51F81317B
:104CB00051F00E94E51F823209F07DC004C00E94BD
:104CC000E51F813149F48C2F0E943C26811109C0D7
:104CD0008C2F0E94AF2522C00E94E51F823221F452
:104CE000F2CF81E090E01AC08C2F0E943E26811105
:104CF00014C0C43179F048F4CB3079F0C03109F0F8
:104D00005EC082E080933D0308C0C93219F0C83309
:104D100021F055C010923D0352C081E0817051C016
:104D2000C93279F108F5C43161F1A0F4C73009F056
:104D300044C01092330384E180931501C0931401A1
:104D40008CE38093130188E08093120188E28093C2
:104D5000110133C082EE8C0F863078F58C2F0E94C3
:104D6000402680933C0329C0CE34E9F020F4CB34B4
:104D700021F56AE013C0C13579F0C235F1F461E084
:104D80000DC080913C03882319F010923C0315C09C
:104D900081E080933D0315C061E006C080913C0333
:104DA0000E94E9240AC06AE080913C030E945F25CA
:104DB00004C010923D0380E004C081E002C080E0A6
:104DC000ADCFCF91089580915E0308950F931F9307
:104DD000CF93DF9300D01F92CDB7DEB78C010E9436
:104DE0005629823011F0843021F584E089831B83B9
:104DF0000A8382E08093E9008FEF9091E800815070
:104E000095FD06C095ED9A95F1F700008111F5CF5B
:104E10008091E80085FF0DC040E050E063E070E065
:104E2000CE0101960E9473298091E8008E778093CD
:104E3000E8000F900F900F90DF91CF911F910F918D
:104E40000895CF93DF9300D01F92CDB7DEB72091A6
:104E5000B203243031F523E02983805891099B83E4
:104E60008A8382E08093E9008FEF9091E80081507F
:104E700095FD06C095ED9A95F1F700008111F5CFEB
:104E80008091E80085FF0DC040E050E063E070E0F5
:104E9000CE0101960E9473298091E8008E7780935D
:104EA000E8000F900F900F90DF91CF910895CF936E
:104EB000DF93EC010E945629823011F08430F9F41E
:104EC00082E08093E9009FEF8091E800915085FD9A
:104ED00006C085ED8A95F1F700009111F5CF80911C
:104EE000E80085FF0CC040E050E066E070E0CE01D5
:104EF0000E9473298091E8008E778093E800DF910B
:104F0000CF910895CF93DF93EC010E945629823010
:104F100011F08430D9F580912001882339F08091F7
:104F2000AC0387FF03C060E282E002C068E081E07A
:104F30008093E9008FEF9091E800815095FD06C0C5
:104F400095ED9A95F1F700008111F5CF8091E80079
:104F500085FF1CC080912001811105C040E050E018
:104F600068E070E003C070E040E050E0CE010E94D5
:104F700073298091E8008E778093E80080E2FE013B
:104F8000AEE3B3E001900D928A95E1F7DF91CF9106
:104F900008958091B103811109C00E94082B0E94DD
:104FA000652B8091E20084608093E2000895109266
:104FB000B1030895089508950C94E72142E061EC4F
:104FC00081E00E94822A42E261EC82E00C94822A13
:104FD0008091B403833009F460C030F4813071F003
:104FE000823009F499C008958A3009F485C08B3065
:104FF00009F46BC0893009F0A7C020C08091B303C9
:10500000813A09F0A1C08091E800877F8093E80091
:105010008091B7039091B803892B21F460E28EE36D
:1050200093E003C060E080E090E070E00E94BE2961
:105030008091E8008B778093E80008958091B30316
:10504000813209F081C08091B7039091B803029733
:1050500008F07AC08091E800877F8093E800809113
:10506000E80082FD05C08091B2038111F8CF6CC0C9
:105070002091F3008091F20090E0922B029729F4A6
:105080008091F1008B7F813021F48091F100809339
:105090005E038091E8008B7753C08091B303813A1F
:1050A00009F052C08091B7039091B803892B09F0A1
:1050B0004BC08091E800877F8093E8008091E800F2
:1050C00080FFFCCF8091200136C08091B3038132F4
:1050D000D9F58091B7039091B803892BA9F58091F8
:1050E000E800877F8093E8000E94B72A8091B5038B
:1050F000809320010C942E1A8091B303813221F504
:105100008091E800877F8093E8000E94B72A809111
:10511000B60380935F0308958091B303813AA1F4AD
:105120008091E800877F8093E8008091E80080FF0D
:10513000FCCF80915F038093F1008091E8008E772F
:105140008093E8000C94B72A089584B7877F84BFC2
:105150000FB6F894A89580916000886180936000F4
:10516000109260000FBE80E8809361001092610091
:105170000E9433140E94082B0E94652B8091E2004C
:1051800084608093E20078940E94F42D0E943B1486
:1051900086E191E00E94C0138091B203853069F4EA
:1051A0000E949F218091B0038823B1F30E94D021F7
:1051B000882391F30E945D29EFCF0E9445140E943D
:1051C000BA12EACF0C94E428292F33272330310573
:1051D000C9F064F42130310581F02230310509F045
:1051E0004CC08BE390E02AE134E04BC02132310522
:1051F00021F12232310589F140C082E190E025E5BC
:1052000034E03FC099278130910571F02CF4892B4F
:10521000A1F5E6E1F4E00DC08230910541F003977D
:1052200061F5E0EEF3E005C0EEEFF3E002C0E6EE7C
:10523000F3E0849190E09F0124C06115710541F075
:1052400061307105D1F489E090E025E434E019C0C3
:1052500089E090E02CE234E014C06115710541F062
:105260006130710551F480EC90E027E634E009C02C
:1052700080E490E027E235E004C080E090E020E0A8
:1052800030E0FA013183208308950895CF93C82F29
:105290000E944529C0936003CF9108958091B20385
:1052A000843011F081E0089582E0089580916003D8
:1052B000811102C00C944E29089580E189BD82E1DC
:1052C00089BD09B400FEFDCF8091D8008F7D809309
:1052D000D8008091E00082608093E0008091E0003F
:1052E00081FDFCCF0895CF92DF92EF92FF920F9352
:1052F0001F93CF93DF93EC018B016A010E94D62AA2
:10530000811133C0C114D10439F0F601808191813B
:10531000081B190BC80FD91FE12CF12C0115110521
:1053200019F18091E80085FD16C08091E8008E7724
:105330008093E800C114D10449F0F6018081918185
:10534000E80EF91EF182E08285E00FC00E94D62AA5
:10535000882321F30AC089918093F100015011093B
:10536000FFEFEF1AFF0ADACF80E0DF91CF911F91B4
:105370000F91FF90EF90DF90CF9008952091B903A7
:105380003091BA032617370748F06115710539F4D3
:105390002091E8002E772093E80001C0B90140E099
:1053A00061157105A9F12091B203222309F443C0CC
:1053B000253009F442C02091E80023FD40C020912F
:1053C000E80022FD32C02091E80020FFE9CF4091A3
:1053D000F3002091F20030E0342BFC01CF01611585
:1053E000710559F02830310540F481918093F10026
:1053F000615071092F5F3F4FF1CF41E028303105F7
:1054000009F040E02091E8002E772093E800C8CF13
:105410004111C9CF0AC08091B203882361F0853061
:1054200061F08091E80083FD0AC08091E80082FF6E
:10543000F2CF80E0089582E0089583E0089581E04E
:1054400008952091B9033091BA032617370748F021
:105450006115710539F42091E8002E772093E8005A
:1054600001C0B901FC0120E06115710591F1809145
:10547000B203882309F440C0853009F43FC080910D
:10548000E80083FD3DC08091E80082FD2FC080913F
:10549000E80080FFE9CF2091F3008091F20090E0D6
:1054A000922B6115710559F08830910540F42491D3
:1054B0002093F1003196615071090196F2CF21E0FD
:1054C000089709F020E08091E8008E778093E8004B
:1054D000CBCF2111CCCF0AC08091B203882361F0D9
:1054E000853061F08091E80083FD0AC08091E8007A
:1054F00082FFF2CF80E0089582E0089583E008956E
:1055000081E00895982F973058F59093E900981707
:1055100039F07091EC002091ED005091F00003C043
:10552000242F762F50E021FF19C03091EB003E7FF1
:105530003093EB003091ED003D7F3093ED003091E2
:10554000EB0031603093EB007093EC002093ED00A2
:105550005093F0002091EE0027FF07C09F5FD3CF4C
:105560008F708093E90081E0089580E00895809134
:10557000B30387FF11C08091E80082FD05C08091D0
:10558000B2038111F8CF11C08091E8008B770BC076
:105590008091B203882349F08091E80080FFF8CF22
:1055A0008091E8008E778093E80008952091E400D0
:1055B0003091E50095E64091EC00842F817040FF2A
:1055C00022C08091E80080FD1CC08091B203882336
:1055D00091F0853091F08091EB0085FD10C04091F5
:1055E000E4005091E5004217530729F39A019150C6
:1055F00011F784E0089582E0089583E0089581E042
:10560000089580E008954091E80042FFDECF0895BC
:105610000E94762B0E947E2BE0EEF0E0808181607C
:105620008083E8EDF0E080818F77808319BCA7ED5F
:10563000B0E08C918E7F8C9380818F7E80831092DE
:10564000B10308950F931F93CF93DF930E94762B9E
:105650000E947E2BC8EDD0E088818F778883888177
:105660008068888388818F7D888319BC1092B203FB
:105670001092AE031092B0031092AF0300EE10E050
:10568000F80180818B7F808388818160888342E0FC
:1056900060E080E00E94822AE1EEF0E080818E7F6F
:1056A0008083E2EEF0E08081816080838081886089
:1056B0008083F80180818E7F8083888180618883E8
:1056C000DF91CF911F910F910895E8EDF0E0808177
:1056D0008F7E8083E7EDF0E080818160808384E0CD
:1056E00082BF81E08093B1030C94222BE8EDF0E0BF
:1056F00080818E7F80831092E20008951092DA00FC
:105700001092E10008951F920F920FB60F9211248C
:105710002F933F934F935F936F937F938F939F93B9
:10572000AF93BF93EF93FF938091E10082FF0BC093
:105730008091E20082FF07C08091E1008B7F80931F
:10574000E1000E94F32D8091DA0080FF1FC080915C
:10575000D80080FF1BC08091DA008E7F8093DA0032
:105760008091D90080FF0DC080E189BD82E189BDB3
:1057700009B400FEFDCF81E08093B2030E94C927E7
:1057800005C019BC1092B2030E94D7278091E10096
:1057900080FF19C08091E20080FF15C08091E20077
:1057A0008E7F8093E2008091E20080618093E2002E
:1057B0008091D80080628093D80019BC85E08093E6
:1057C000B2030E94DB278091E10084FF30C080910A
:1057D000E20084FF2CC080E189BD82E189BD09B46B
:1057E00000FEFDCF8091D8008F7D8093D8008091FE
:1057F000E1008F7E8093E1008091E2008F7E8093B4
:10580000E2008091E20081608093E2008091AE032B
:10581000882311F084E007C08091E30087FD02C077
:1058200081E001C083E08093B2030E94DC27809175
:10583000E10083FF29C08091E20083FF25C08091B1
:10584000E100877F8093E10082E08093B2031092B1
:10585000AE038091E1008E7F8093E1008091E200B1
:105860008E7F8093E2008091E20080618093E2006D
:1058700042E060E080E00E94822A8091F00088602F
:105880008093F0000E94DA27FF91EF91BF91AF91D2
:105890009F918F917F916F915F914F913F912F9148
:1058A0000F900FBE0F901F9018951F920F920FB67A
:1058B0000F9211242F933F934F935F936F937F9396
:1058C0008F939F93AF93BF93CF93DF93EF93FF9308
:1058D000C091E900CF708091EC00D82FD17080FD8D
:1058E000D0E81092E9008091F000877F8093F0006B
:1058F00078940E94992C1092E9008091F0008860C1
:105900008093F000CD2BCF70C093E900FF91EF9111
:10591000DF91CF91BF91AF919F918F917F916F91C7
:105920005F914F913F912F910F900FBE0F901F905D
:1059300018951F93CF93DF93CDB7DEB7AA970FB615
:10594000F894DEBF0FBECDBFE3EBF3E088E08E0F2F
:105950009091F10091938E13FBCF0E94E8278091E4
:10596000E80083FF28C18091B3039091B403492FCD
:1059700050E04A30510508F01EC1FA01EF51FF4FC7
:105980000C948031803821F0823809F014C108C0AD
:105990008091AF039091B003992389F082600FC08A
:1059A0008091B7038F70873008F005C18093E900BC
:1059B0008091EB0085FB882780F91092E900909197
:1059C000E800977F9093E8008093F1001092F10037
:1059D000D0C0282F2D7F09F0EEC0882319F0823027
:1059E00061F0E9C08091B503813009F0E4C09330E3
:1059F00009F080E08093B0032EC08091B50381113F
:105A00002AC08091B7038F702FEF280F263008F03F
:105A1000D2C08093E9002091EB0020FF1CC093309E
:105A200021F48091EB00806214C09091EB009061B2
:105A30009093EB0021E030E0A90102C0440F551F14
:105A40008A95E2F74093EA001092EA008091EB0019
:105A500088608093EB001092E9008091E800877FD6
:105A60008093E8000E94B72AA6C08111A4C01091BB
:105A7000B5031F778091E3008078812B8093E3004A
:105A80008091E800877F8093E8000E94B72A809188
:105A9000E80080FFFCCF8091E30080688093E30002
:105AA000111102C082E001C083E08093B20383C081
:105AB0008058823008F07FC08091B5039091B60382
:105AC0008C3D53E0950779F583E08A838AE28983E8
:105AD0004FB7F894DE01139620E03EE051E2E32F49
